{
  "_format": "hh-sol-artifact-1",
  "contractName": "KBMarket",
  "sourceName": "contracts/KBMarket.sol",
  "abi": [
    {
      "inputs": [],
      "stateMutability": "nonpayable",
      "type": "constructor"
    },
    {
      "anonymous": false,
      "inputs": [
        {
          "indexed": false,
          "internalType": "uint256",
          "name": "itemId",
          "type": "uint256"
        },
        {
          "indexed": false,
          "internalType": "address",
          "name": "nftContract",
          "type": "address"
        },
        {
          "indexed": false,
          "internalType": "uint256",
          "name": "tokenId",
          "type": "uint256"
        },
        {
          "indexed": false,
          "internalType": "address payable",
          "name": "seller",
          "type": "address"
        },
        {
          "indexed": false,
          "internalType": "address payable",
          "name": "owner",
          "type": "address"
        },
        {
          "indexed": false,
          "internalType": "uint256",
          "name": "price",
          "type": "uint256"
        },
        {
          "indexed": false,
          "internalType": "bool",
          "name": "isSold",
          "type": "bool"
        }
      ],
      "name": "MarketTokenMinted",
      "type": "event"
    },
    {
      "inputs": [
        {
          "internalType": "address",
          "name": "nftContract",
          "type": "address"
        },
        {
          "internalType": "uint256",
          "name": "itemId",
          "type": "uint256"
        }
      ],
      "name": "createMarketSale",
      "outputs": [],
      "stateMutability": "payable",
      "type": "function"
    },
    {
      "inputs": [],
      "name": "fetchItemsCreated",
      "outputs": [
        {
          "components": [
            {
              "internalType": "uint256",
              "name": "itemId",
              "type": "uint256"
            },
            {
              "internalType": "address",
              "name": "nftContract",
              "type": "address"
            },
            {
              "internalType": "uint256",
              "name": "tokenId",
              "type": "uint256"
            },
            {
              "internalType": "address payable",
              "name": "seller",
              "type": "address"
            },
            {
              "internalType": "address payable",
              "name": "owner",
              "type": "address"
            },
            {
              "internalType": "uint256",
              "name": "price",
              "type": "uint256"
            },
            {
              "internalType": "bool",
              "name": "isSold",
              "type": "bool"
            }
          ],
          "internalType": "struct KBMarket.MarketToken[]",
          "name": "",
          "type": "tuple[]"
        }
      ],
      "stateMutability": "view",
      "type": "function"
    },
    {
      "inputs": [],
      "name": "fetchMarketTokens",
      "outputs": [
        {
          "components": [
            {
              "internalType": "uint256",
              "name": "itemId",
              "type": "uint256"
            },
            {
              "internalType": "address",
              "name": "nftContract",
              "type": "address"
            },
            {
              "internalType": "uint256",
              "name": "tokenId",
              "type": "uint256"
            },
            {
              "internalType": "address payable",
              "name": "seller",
              "type": "address"
            },
            {
              "internalType": "address payable",
              "name": "owner",
              "type": "address"
            },
            {
              "internalType": "uint256",
              "name": "price",
              "type": "uint256"
            },
            {
              "internalType": "bool",
              "name": "isSold",
              "type": "bool"
            }
          ],
          "internalType": "struct KBMarket.MarketToken[]",
          "name": "",
          "type": "tuple[]"
        }
      ],
      "stateMutability": "view",
      "type": "function"
    },
    {
      "inputs": [],
      "name": "fetchMyNFTs",
      "outputs": [
        {
          "components": [
            {
              "internalType": "uint256",
              "name": "itemId",
              "type": "uint256"
            },
            {
              "internalType": "address",
              "name": "nftContract",
              "type": "address"
            },
            {
              "internalType": "uint256",
              "name": "tokenId",
              "type": "uint256"
            },
            {
              "internalType": "address payable",
              "name": "seller",
              "type": "address"
            },
            {
              "internalType": "address payable",
              "name": "owner",
              "type": "address"
            },
            {
              "internalType": "uint256",
              "name": "price",
              "type": "uint256"
            },
            {
              "internalType": "bool",
              "name": "isSold",
              "type": "bool"
            }
          ],
          "internalType": "struct KBMarket.MarketToken[]",
          "name": "",
          "type": "tuple[]"
        }
      ],
      "stateMutability": "view",
      "type": "function"
    },
    {
      "inputs": [],
      "name": "getListingPrice",
      "outputs": [
        {
          "internalType": "uint256",
          "name": "",
          "type": "uint256"
        }
      ],
      "stateMutability": "view",
      "type": "function"
    },
    {
      "inputs": [
        {
          "internalType": "address",
          "name": "nftContract",
          "type": "address"
        },
        {
          "internalType": "uint256",
          "name": "tokenId",
          "type": "uint256"
        },
        {
          "internalType": "uint256",
          "name": "price",
          "type": "uint256"
        }
      ],
      "name": "makeMarketItem",
      "outputs": [],
      "stateMutability": "payable",
      "type": "function"
    }
  ],
  "bytecode": "0x6080604052669fdf42f6e4800060045534801561001b57600080fd5b506001600055600380546001600160a01b03191633179055610d17806100426000396000f3fe6080604052600436106100555760003560e01c806312e855851461005a578063202e37401461007d5780637a060f561461009f578063c23b139e146100b4578063c69bdf75146100c7578063f064c32e146100dc575b600080fd5b34801561006657600080fd5b506004546040519081526020015b60405180910390f35b34801561008957600080fd5b506100926100f1565b6040516100749190610bed565b6100b26100ad366004610bbb565b6102f2565b005b6100b26100c2366004610b92565b6105a0565b3480156100d357600080fd5b50610092610794565b3480156100e857600080fd5b50610092610942565b606060006100fe60015490565b905060008060005b8381101561016157336005600061011e846001610c81565b81526020810191909152604001600020600401546001600160a01b0316141561014f5761014c600183610c81565b91505b8061015981610cb0565b915050610106565b5060008167ffffffffffffffff81111561018b57634e487b7160e01b600052604160045260246000fd5b6040519080825280602002602001820160405280156101c457816020015b6101b1610b3a565b8152602001906001900390816101a95790505b50905060005b848110156102e95733600560006101e2846001610c81565b81526020810191909152604001600020600401546001600160a01b031614156102d7576000600581610215846001610c81565b81526020808201929092526040908101600090812054808252600580855291839020835160e0810185528154815260018201546001600160a01b0390811696820196909652600282015494810194909452600381015485166060850152600481015490941660808401529083015460a0830152600683015460ff16151560c083015285519093508590889081106102bc57634e487b7160e01b600052603260045260246000fd5b60209081029190910101526102d2600187610c81565b955050505b806102e181610cb0565b9150506101ca565b50949350505050565b6002600054141561034a5760405162461bcd60e51b815260206004820152601f60248201527f5265656e7472616e637947756172643a207265656e7472616e742063616c6c0060448201526064015b60405180910390fd5b60026000558061039c5760405162461bcd60e51b815260206004820152601e60248201527f7072696365206d757374206265206174206c65617374206f6e652077656900006044820152606401610341565b60045434146103f95760405162461bcd60e51b8152602060048201526024808201527f5072696365206d75737420626520657175616c20746f206c697374696e6720706044820152637269636560e01b6064820152608401610341565b610407600180546001019055565b600061041260015490565b6040805160e0810182528281526001600160a01b0387811660208084018281528486018a8152336060870181815260006080890181815260a08a018e815260c08b018381528d8452600598899052928c90209a518b55955160018b018054918b166001600160a01b0319928316179055945160028b0155915160038a018054918a1691861691909117905590516004808a01805492909916919094161790965591519286019290925592516006909401805494151560ff199095169490941790935592516323b872dd60e01b81529182015230602482015260448101869052919250906323b872dd90606401600060405180830381600087803b15801561051857600080fd5b505af115801561052c573d6000803e3d6000fd5b5050604080518481526001600160a01b038816602082015290810186905233606082015260006080820181905260a0820186905260c08201527fcd9b0dfebab7db4dbe70606f69fadc8e987e7c80a65410f0bb5ae8bd72dabba7925060e001905060405180910390a1505060016000555050565b600260005414156105f35760405162461bcd60e51b815260206004820152601f60248201527f5265656e7472616e637947756172643a207265656e7472616e742063616c6c006044820152606401610341565b600260008181558281526005602081905260409091209081015491015434821461065f5760405162461bcd60e51b815260206004820152601e60248201527f706c65617365207375626d6974207468652061736b696e6720707269636500006044820152606401610341565b6000838152600560205260408082206003015490516001600160a01b03909116913480156108fc02929091818181858888f193505050501580156106a7573d6000803e3d6000fd5b506040516323b872dd60e01b8152306004820152336024820152604481018290526001600160a01b038516906323b872dd90606401600060405180830381600087803b1580156106f657600080fd5b505af115801561070a573d6000803e3d6000fd5b505050600084815260056020526040902060068101805460ff1916600117905560040180546001600160a01b031916331790555061074c600280546001019055565b6003546004546040516001600160a01b039092169181156108fc0291906000818181858888f19350505050158015610788573d6000803e3d6000fd5b50506001600055505050565b606060006107a160015490565b905060006107ae60025490565b6107b89083610c99565b90506000808267ffffffffffffffff8111156107e457634e487b7160e01b600052604160045260246000fd5b60405190808252806020026020018201604052801561081d57816020015b61080a610b3a565b8152602001906001900390816108025790505b50905060005b848110156102e957600060058161083b846001610c81565b81526020810191909152604001600020600401546001600160a01b0316141561093057600060058161086e846001610c81565b81526020808201929092526040908101600090812054808252600580855291839020835160e0810185528154815260018201546001600160a01b0390811696820196909652600282015494810194909452600381015485166060850152600481015490941660808401529083015460a0830152600683015460ff16151560c0830152855190935085908790811061091557634e487b7160e01b600052603260045260246000fd5b602090810291909101015261092b600186610c81565b945050505b8061093a81610cb0565b915050610823565b6060600061094f60015490565b905060008060005b838110156109b257336005600061096f846001610c81565b81526020810191909152604001600020600301546001600160a01b031614156109a05761099d600183610c81565b91505b806109aa81610cb0565b915050610957565b5060008167ffffffffffffffff8111156109dc57634e487b7160e01b600052604160045260246000fd5b604051908082528060200260200182016040528015610a1557816020015b610a02610b3a565b8152602001906001900390816109fa5790505b50905060005b848110156102e9573360056000610a33846001610c81565b81526020810191909152604001600020600301546001600160a01b03161415610b28576000600581610a66846001610c81565b81526020808201929092526040908101600090812054808252600580855291839020835160e0810185528154815260018201546001600160a01b0390811696820196909652600282015494810194909452600381015485166060850152600481015490941660808401529083015460a0830152600683015460ff16151560c08301528551909350859088908110610b0d57634e487b7160e01b600052603260045260246000fd5b6020908102919091010152610b23600187610c81565b955050505b80610b3281610cb0565b915050610a1b565b6040805160e081018252600080825260208201819052918101829052606081018290526080810182905260a0810182905260c081019190915290565b80356001600160a01b0381168114610b8d57600080fd5b919050565b60008060408385031215610ba4578182fd5b610bad83610b76565b946020939093013593505050565b600080600060608486031215610bcf578081fd5b610bd884610b76565b95602085013595506040909401359392505050565b602080825282518282018190526000919060409081850190868401855b82811015610c7457815180518552868101516001600160a01b039081168887015286820151878701526060808301518216908701526080808301519091169086015260a0808201519086015260c09081015115159085015260e09093019290850190600101610c0a565b5091979650505050505050565b60008219821115610c9457610c94610ccb565b500190565b600082821015610cab57610cab610ccb565b500390565b6000600019821415610cc457610cc4610ccb565b5060010190565b634e487b7160e01b600052601160045260246000fdfea2646970667358221220a2315a734823194c26f39a5e90c831f16b73c6c03949b63ef573cbbf894eaf5f64736f6c63430008040033",
  "linkReferences": {},
  "deployedLinkReferences": {}
}